{
  "contractName": "ElectionManager",
  "abi": [
    {
      "constant": false,
      "inputs": [
        {
          "name": "spender",
          "type": "address"
        },
        {
          "name": "value",
          "type": "uint256"
        }
      ],
      "name": "approve",
      "outputs": [
        {
          "name": "",
          "type": "bool"
        }
      ],
      "payable": false,
      "stateMutability": "nonpayable",
      "type": "function",
      "signature": "0x095ea7b3"
    },
    {
      "constant": true,
      "inputs": [],
      "name": "totalSupply",
      "outputs": [
        {
          "name": "",
          "type": "uint256"
        }
      ],
      "payable": false,
      "stateMutability": "view",
      "type": "function",
      "signature": "0x18160ddd"
    },
    {
      "constant": false,
      "inputs": [
        {
          "name": "from",
          "type": "address"
        },
        {
          "name": "to",
          "type": "address"
        },
        {
          "name": "value",
          "type": "uint256"
        }
      ],
      "name": "transferFrom",
      "outputs": [
        {
          "name": "",
          "type": "bool"
        }
      ],
      "payable": false,
      "stateMutability": "nonpayable",
      "type": "function",
      "signature": "0x23b872dd"
    },
    {
      "constant": false,
      "inputs": [
        {
          "name": "spender",
          "type": "address"
        },
        {
          "name": "addedValue",
          "type": "uint256"
        }
      ],
      "name": "increaseAllowance",
      "outputs": [
        {
          "name": "",
          "type": "bool"
        }
      ],
      "payable": false,
      "stateMutability": "nonpayable",
      "type": "function",
      "signature": "0x39509351"
    },
    {
      "constant": true,
      "inputs": [],
      "name": "smokeTest",
      "outputs": [
        {
          "name": "",
          "type": "string"
        }
      ],
      "payable": false,
      "stateMutability": "view",
      "type": "function",
      "signature": "0x3a81e5ff"
    },
    {
      "constant": true,
      "inputs": [
        {
          "name": "",
          "type": "uint256"
        }
      ],
      "name": "elections",
      "outputs": [
        {
          "name": "creator",
          "type": "address"
        },
        {
          "name": "electionName",
          "type": "string"
        },
        {
          "name": "startTime",
          "type": "uint256"
        },
        {
          "name": "endTime",
          "type": "uint256"
        }
      ],
      "payable": false,
      "stateMutability": "view",
      "type": "function",
      "signature": "0x5e6fef01"
    },
    {
      "constant": true,
      "inputs": [
        {
          "name": "owner",
          "type": "address"
        }
      ],
      "name": "balanceOf",
      "outputs": [
        {
          "name": "",
          "type": "uint256"
        }
      ],
      "payable": false,
      "stateMutability": "view",
      "type": "function",
      "signature": "0x70a08231"
    },
    {
      "constant": true,
      "inputs": [],
      "name": "electionCount",
      "outputs": [
        {
          "name": "",
          "type": "uint256"
        }
      ],
      "payable": false,
      "stateMutability": "view",
      "type": "function",
      "signature": "0x997d2830"
    },
    {
      "constant": false,
      "inputs": [
        {
          "name": "spender",
          "type": "address"
        },
        {
          "name": "subtractedValue",
          "type": "uint256"
        }
      ],
      "name": "decreaseAllowance",
      "outputs": [
        {
          "name": "",
          "type": "bool"
        }
      ],
      "payable": false,
      "stateMutability": "nonpayable",
      "type": "function",
      "signature": "0xa457c2d7"
    },
    {
      "constant": false,
      "inputs": [
        {
          "name": "to",
          "type": "address"
        },
        {
          "name": "value",
          "type": "uint256"
        }
      ],
      "name": "transfer",
      "outputs": [
        {
          "name": "",
          "type": "bool"
        }
      ],
      "payable": false,
      "stateMutability": "nonpayable",
      "type": "function",
      "signature": "0xa9059cbb"
    },
    {
      "constant": true,
      "inputs": [
        {
          "name": "owner",
          "type": "address"
        },
        {
          "name": "spender",
          "type": "address"
        }
      ],
      "name": "allowance",
      "outputs": [
        {
          "name": "",
          "type": "uint256"
        }
      ],
      "payable": false,
      "stateMutability": "view",
      "type": "function",
      "signature": "0xdd62ed3e"
    },
    {
      "anonymous": false,
      "inputs": [
        {
          "indexed": true,
          "name": "from",
          "type": "address"
        },
        {
          "indexed": true,
          "name": "to",
          "type": "address"
        },
        {
          "indexed": false,
          "name": "value",
          "type": "uint256"
        }
      ],
      "name": "Transfer",
      "type": "event",
      "signature": "0xddf252ad1be2c89b69c2b068fc378daa952ba7f163c4a11628f55a4df523b3ef"
    },
    {
      "anonymous": false,
      "inputs": [
        {
          "indexed": true,
          "name": "owner",
          "type": "address"
        },
        {
          "indexed": true,
          "name": "spender",
          "type": "address"
        },
        {
          "indexed": false,
          "name": "value",
          "type": "uint256"
        }
      ],
      "name": "Approval",
      "type": "event",
      "signature": "0x8c5be1e5ebec7d5bd14f71427d1e84f3dd0314c0f7b2291e5b200ac8c7c3b925"
    },
    {
      "constant": false,
      "inputs": [
        {
          "name": "_electionName",
          "type": "string"
        },
        {
          "name": "_startTime",
          "type": "uint256"
        },
        {
          "name": "_endTime",
          "type": "uint256"
        },
        {
          "name": "seedCandidate",
          "type": "string"
        },
        {
          "name": "_whiteList",
          "type": "address[]"
        }
      ],
      "name": "startElection",
      "outputs": [
        {
          "name": "",
          "type": "uint256"
        }
      ],
      "payable": false,
      "stateMutability": "nonpayable",
      "type": "function",
      "signature": "0xa9c6af97"
    },
    {
      "constant": true,
      "inputs": [
        {
          "name": "i",
          "type": "uint256"
        }
      ],
      "name": "getElectionCandidates",
      "outputs": [
        {
          "name": "",
          "type": "uint256[]"
        }
      ],
      "payable": false,
      "stateMutability": "view",
      "type": "function",
      "signature": "0x5e12845e"
    },
    {
      "constant": true,
      "inputs": [
        {
          "name": "_id",
          "type": "uint256"
        }
      ],
      "name": "getCandidate",
      "outputs": [
        {
          "name": "",
          "type": "uint256"
        },
        {
          "name": "",
          "type": "string"
        },
        {
          "name": "",
          "type": "uint256"
        }
      ],
      "payable": false,
      "stateMutability": "view",
      "type": "function",
      "signature": "0x35b8e820"
    },
    {
      "constant": false,
      "inputs": [
        {
          "name": "electionId",
          "type": "uint256"
        },
        {
          "name": "newCandidateName",
          "type": "string"
        }
      ],
      "name": "addNewCandidate",
      "outputs": [],
      "payable": false,
      "stateMutability": "nonpayable",
      "type": "function",
      "signature": "0xd05e4d7f"
    },
    {
      "constant": false,
      "inputs": [
        {
          "name": "_id",
          "type": "uint256"
        },
        {
          "name": "_electionId",
          "type": "uint256"
        }
      ],
      "name": "voteForCandidate",
      "outputs": [
        {
          "name": "",
          "type": "uint256"
        },
        {
          "name": "",
          "type": "string"
        },
        {
          "name": "",
          "type": "uint256"
        }
      ],
      "payable": false,
      "stateMutability": "nonpayable",
      "type": "function",
      "signature": "0x626b2c98"
    },
    {
      "constant": true,
      "inputs": [
        {
          "name": "electionId",
          "type": "uint256"
        }
      ],
      "name": "getRegistry",
      "outputs": [
        {
          "name": "",
          "type": "address[]"
        }
      ],
      "payable": false,
      "stateMutability": "view",
      "type": "function",
      "signature": "0x193c045e"
    },
    {
      "constant": false,
      "inputs": [
        {
          "name": "electionId",
          "type": "uint256"
        },
        {
          "name": "voter",
          "type": "address"
        }
      ],
      "name": "registerVoter",
      "outputs": [],
      "payable": false,
      "stateMutability": "nonpayable",
      "type": "function",
      "signature": "0x94c790bb"
    },
    {
      "constant": true,
      "inputs": [
        {
          "name": "_voteLength",
          "type": "uint256"
        }
      ],
      "name": "setTimer",
      "outputs": [
        {
          "name": "",
          "type": "uint256"
        }
      ],
      "payable": false,
      "stateMutability": "view",
      "type": "function",
      "signature": "0xb976bd17"
    },
    {
      "constant": false,
      "inputs": [
        {
          "name": "_voter",
          "type": "address"
        }
      ],
      "name": "distributeToken",
      "outputs": [],
      "payable": false,
      "stateMutability": "nonpayable",
      "type": "function",
      "signature": "0x86d74037"
    }
  ],
  "bytecode": "0x60806040526040805190810160405280601281526020017f69747320776f726b696e67206e6963656c790000000000000000000000000000815250600390805190602001906200005192919062000066565b503480156200005f57600080fd5b5062000115565b828054600181600116156101000203166002900490600052602060002090601f016020900481019282601f10620000a957805160ff1916838001178555620000da565b82800160010185558215620000da579182015b82811115620000d9578251825591602001919060010190620000bc565b5b509050620000e99190620000ed565b5090565b6200011291905b808211156200010e576000816000905550600101620000f4565b5090565b90565b61289780620001256000396000f3fe608060405260043610610112576000357c0100000000000000000000000000000000000000000000000000000000900463ffffffff168063095ea7b31461011757806318160ddd1461018a578063193c045e146101b557806323b872dd1461024557806335b8e820146102d8578063395093511461039a5780633a81e5ff1461040d5780635e12845e1461049d5780635e6fef011461052d578063626b2c981461062257806370a08231146106ee57806386d740371461075357806394c790bb146107a4578063997d2830146107ff578063a457c2d71461082a578063a9059cbb1461089d578063a9c6af9714610910578063b976bd1714610b2b578063d05e4d7f14610b7a578063dd62ed3e14610c4c575b600080fd5b34801561012357600080fd5b506101706004803603604081101561013a57600080fd5b81019080803573ffffffffffffffffffffffffffffffffffffffff16906020019092919080359060200190929190505050610cd1565b604051808215151515815260200191505060405180910390f35b34801561019657600080fd5b5061019f610dfe565b6040518082815260200191505060405180910390f35b3480156101c157600080fd5b506101ee600480360360208110156101d857600080fd5b8101908080359060200190929190505050610e08565b6040518080602001828103825283818151815260200191508051906020019060200280838360005b83811015610231578082015181840152602081019050610216565b505050509050019250505060405180910390f35b34801561025157600080fd5b506102be6004803603606081101561026857600080fd5b81019080803573ffffffffffffffffffffffffffffffffffffffff169060200190929190803573ffffffffffffffffffffffffffffffffffffffff16906020019092919080359060200190929190505050610eac565b604051808215151515815260200191505060405180910390f35b3480156102e457600080fd5b50610311600480360360208110156102fb57600080fd5b81019080803590602001909291905050506110b4565b6040518084815260200180602001838152602001828103825284818151815260200191508051906020019080838360005b8381101561035d578082015181840152602081019050610342565b50505050905090810190601f16801561038a5780820380516001836020036101000a031916815260200191505b5094505050505060405180910390f35b3480156103a657600080fd5b506103f3600480360360408110156103bd57600080fd5b81019080803573ffffffffffffffffffffffffffffffffffffffff169060200190929190803590602001909291905050506111a7565b604051808215151515815260200191505060405180910390f35b34801561041957600080fd5b506104226113de565b6040518080602001828103825283818151815260200191508051906020019080838360005b83811015610462578082015181840152602081019050610447565b50505050905090810190601f16801561048f5780820380516001836020036101000a031916815260200191505b509250505060405180910390f35b3480156104a957600080fd5b506104d6600480360360208110156104c057600080fd5b810190808035906020019092919050505061147c565b6040518080602001828103825283818151815260200191508051906020019060200280838360005b838110156105195780820151818401526020810190506104fe565b505050509050019250505060405180910390f35b34801561053957600080fd5b506105666004803603602081101561055057600080fd5b81019080803590602001909291905050506114ea565b604051808573ffffffffffffffffffffffffffffffffffffffff1673ffffffffffffffffffffffffffffffffffffffff16815260200180602001848152602001838152602001828103825285818151815260200191508051906020019080838360005b838110156105e45780820151818401526020810190506105c9565b50505050905090810190601f1680156106115780820380516001836020036101000a031916815260200191505b509550505050505060405180910390f35b34801561062e57600080fd5b506106656004803603604081101561064557600080fd5b8101908080359060200190929190803590602001909291905050506115d2565b6040518084815260200180602001838152602001828103825284818151815260200191508051906020019080838360005b838110156106b1578082015181840152602081019050610696565b50505050905090810190601f1680156106de5780820380516001836020036101000a031916815260200191505b5094505050505060405180910390f35b3480156106fa57600080fd5b5061073d6004803603602081101561071157600080fd5b81019080803573ffffffffffffffffffffffffffffffffffffffff1690602001909291905050506118f0565b6040518082815260200191505060405180910390f35b34801561075f57600080fd5b506107a26004803603602081101561077657600080fd5b81019080803573ffffffffffffffffffffffffffffffffffffffff169060200190929190505050611938565b005b3480156107b057600080fd5b506107fd600480360360408110156107c757600080fd5b8101908080359060200190929190803573ffffffffffffffffffffffffffffffffffffffff169060200190929190505050611947565b005b34801561080b57600080fd5b50610814611b8b565b6040518082815260200191505060405180910390f35b34801561083657600080fd5b506108836004803603604081101561084d57600080fd5b81019080803573ffffffffffffffffffffffffffffffffffffffff16906020019092919080359060200190929190505050611b91565b604051808215151515815260200191505060405180910390f35b3480156108a957600080fd5b506108f6600480360360408110156108c057600080fd5b81019080803573ffffffffffffffffffffffffffffffffffffffff16906020019092919080359060200190929190505050611dc8565b604051808215151515815260200191505060405180910390f35b34801561091c57600080fd5b50610b15600480360360a081101561093357600080fd5b810190808035906020019064010000000081111561095057600080fd5b82018360208201111561096257600080fd5b8035906020019184600183028401116401000000008311171561098457600080fd5b91908080601f016020809104026020016040519081016040528093929190818152602001838380828437600081840152601f19601f8201169050808301925050505050505091929192908035906020019092919080359060200190929190803590602001906401000000008111156109fb57600080fd5b820183602082011115610a0d57600080fd5b80359060200191846001830284011164010000000083111715610a2f57600080fd5b91908080601f016020809104026020016040519081016040528093929190818152602001838380828437600081840152601f19601f82011690508083019250505050505050919291929080359060200190640100000000811115610a9257600080fd5b820183602082011115610aa457600080fd5b80359060200191846020830284011164010000000083111715610ac657600080fd5b919080806020026020016040519081016040528093929190818152602001838360200280828437600081840152601f19601f820116905080830192505050505050509192919290505050611ddf565b6040518082815260200191505060405180910390f35b348015610b3757600080fd5b50610b6460048036036020811015610b4e57600080fd5b81019080803590602001909291905050506120b7565b6040518082815260200191505060405180910390f35b348015610b8657600080fd5b50610c4a60048036036040811015610b9d57600080fd5b810190808035906020019092919080359060200190640100000000811115610bc457600080fd5b820183602082011115610bd657600080fd5b80359060200191846001830284011164010000000083111715610bf857600080fd5b91908080601f016020809104026020016040519081016040528093929190818152602001838380828437600081840152601f19601f8201169050808301925050505050505091929192905050506120c8565b005b348015610c5857600080fd5b50610cbb60048036036040811015610c6f57600080fd5b81019080803573ffffffffffffffffffffffffffffffffffffffff169060200190929190803573ffffffffffffffffffffffffffffffffffffffff1690602001909291905050506122b5565b6040518082815260200191505060405180910390f35b60008073ffffffffffffffffffffffffffffffffffffffff168373ffffffffffffffffffffffffffffffffffffffff1614151515610d0e57600080fd5b81600160003373ffffffffffffffffffffffffffffffffffffffff1673ffffffffffffffffffffffffffffffffffffffff16815260200190815260200160002060008573ffffffffffffffffffffffffffffffffffffffff1673ffffffffffffffffffffffffffffffffffffffff168152602001908152602001600020819055508273ffffffffffffffffffffffffffffffffffffffff163373ffffffffffffffffffffffffffffffffffffffff167f8c5be1e5ebec7d5bd14f71427d1e84f3dd0314c0f7b2291e5b200ac8c7c3b925846040518082815260200191505060405180910390a36001905092915050565b6000600254905090565b606060056000838152602001908152602001600020600501805480602002602001604051908101604052809291908181526020018280548015610ea057602002820191906000526020600020905b8160009054906101000a900473ffffffffffffffffffffffffffffffffffffffff1673ffffffffffffffffffffffffffffffffffffffff1681526020019060010190808311610e56575b50505050509050919050565b6000610f3d82600160008773ffffffffffffffffffffffffffffffffffffffff1673ffffffffffffffffffffffffffffffffffffffff16815260200190815260200160002060003373ffffffffffffffffffffffffffffffffffffffff1673ffffffffffffffffffffffffffffffffffffffff1681526020019081526020016000205461233c90919063ffffffff16565b600160008673ffffffffffffffffffffffffffffffffffffffff1673ffffffffffffffffffffffffffffffffffffffff16815260200190815260200160002060003373ffffffffffffffffffffffffffffffffffffffff1673ffffffffffffffffffffffffffffffffffffffff16815260200190815260200160002081905550610fc884848461235e565b3373ffffffffffffffffffffffffffffffffffffffff168473ffffffffffffffffffffffffffffffffffffffff167f8c5be1e5ebec7d5bd14f71427d1e84f3dd0314c0f7b2291e5b200ac8c7c3b925600160008873ffffffffffffffffffffffffffffffffffffffff1673ffffffffffffffffffffffffffffffffffffffff16815260200190815260200160002060003373ffffffffffffffffffffffffffffffffffffffff1673ffffffffffffffffffffffffffffffffffffffff168152602001908152602001600020546040518082815260200191505060405180910390a3600190509392505050565b6000606060006006600085815260200190815260200160002060000154600660008681526020019081526020016000206001016006600087815260200190815260200160002060020154818054600181600116156101000203166002900480601f0160208091040260200160405190810160405280929190818152602001828054600181600116156101000203166002900480156111935780601f1061116857610100808354040283529160200191611193565b820191906000526020600020905b81548152906001019060200180831161117657829003601f168201915b505050505091509250925092509193909250565b60008073ffffffffffffffffffffffffffffffffffffffff168373ffffffffffffffffffffffffffffffffffffffff16141515156111e457600080fd5b61127382600160003373ffffffffffffffffffffffffffffffffffffffff1673ffffffffffffffffffffffffffffffffffffffff16815260200190815260200160002060008673ffffffffffffffffffffffffffffffffffffffff1673ffffffffffffffffffffffffffffffffffffffff1681526020019081526020016000205461252a90919063ffffffff16565b600160003373ffffffffffffffffffffffffffffffffffffffff1673ffffffffffffffffffffffffffffffffffffffff16815260200190815260200160002060008573ffffffffffffffffffffffffffffffffffffffff1673ffffffffffffffffffffffffffffffffffffffff168152602001908152602001600020819055508273ffffffffffffffffffffffffffffffffffffffff163373ffffffffffffffffffffffffffffffffffffffff167f8c5be1e5ebec7d5bd14f71427d1e84f3dd0314c0f7b2291e5b200ac8c7c3b925600160003373ffffffffffffffffffffffffffffffffffffffff1673ffffffffffffffffffffffffffffffffffffffff16815260200190815260200160002060008773ffffffffffffffffffffffffffffffffffffffff1673ffffffffffffffffffffffffffffffffffffffff168152602001908152602001600020546040518082815260200191505060405180910390a36001905092915050565b60038054600181600116156101000203166002900480601f0160208091040260200160405190810160405280929190818152602001828054600181600116156101000203166002900480156114745780601f1061144957610100808354040283529160200191611474565b820191906000526020600020905b81548152906001019060200180831161145757829003601f168201915b505050505081565b6060600560008381526020019081526020016000206004018054806020026020016040519081016040528092919081815260200182805480156114de57602002820191906000526020600020905b8154815260200190600101908083116114ca575b50505050509050919050565b60056020528060005260406000206000915090508060000160009054906101000a900473ffffffffffffffffffffffffffffffffffffffff1690806001018054600181600116156101000203166002900480601f0160208091040260200160405190810160405280929190818152602001828054600181600116156101000203166002900480156115bc5780601f10611591576101008083540402835291602001916115bc565b820191906000526020600020905b81548152906001019060200180831161159f57829003601f168201915b5050505050908060020154908060030154905084565b600060606000426005600086815260200190815260200160002060030154111515611665576040517f08c379a000000000000000000000000000000000000000000000000000000000815260040180806020018281038252601f8152602001807f54686520656c656374696f6e2068617320616c726561647920656e6465642e0081525060200191505060405180910390fd5b426005600086815260200190815260200160002060020154101515611718576040517f08c379a00000000000000000000000000000000000000000000000000000000081526004018080602001828103825260218152602001807f54686520656c656374696f6e20686173206e6f7420737461727465642079657481526020017f2e0000000000000000000000000000000000000000000000000000000000000081525060400191505060405180910390fd5b606061172385610e08565b905060008090505b81518110156118e6573373ffffffffffffffffffffffffffffffffffffffff16828281518110151561175957fe5b9060200190602002015173ffffffffffffffffffffffffffffffffffffffff1614156118d9576117c06005600088815260200190815260200160002060000160009054906101000a900473ffffffffffffffffffffffffffffffffffffffff166001611dc8565b156118d8576006600088815260200190815260200160002060020160008154809291906001019190505550600660008881526020019081526020016000206000015460066000898152602001908152602001600020600101600660008a815260200190815260200160002060020154818054600181600116156101000203166002900480601f0160208091040260200160405190810160405280929190818152602001828054600181600116156101000203166002900480156118c45780601f10611899576101008083540402835291602001916118c4565b820191906000526020600020905b8154815290600101906020018083116118a757829003601f168201915b5050505050915094509450945050506118e9565b5b808060010191505061172b565b50505b9250925092565b60008060008373ffffffffffffffffffffffffffffffffffffffff1673ffffffffffffffffffffffffffffffffffffffff168152602001908152602001600020549050919050565b611943816001611dc8565b5050565b6005600083815260200190815260200160002060000160009054906101000a900473ffffffffffffffffffffffffffffffffffffffff1673ffffffffffffffffffffffffffffffffffffffff163373ffffffffffffffffffffffffffffffffffffffff16141515611a46576040517f08c379a00000000000000000000000000000000000000000000000000000000081526004018080602001828103825260378152602001807f4f6e6c792061646d696e2063616e2061646420766f7465727320746f2074686981526020017f7320656c656374696f6e27732077686974656c6973742e00000000000000000081525060400191505060405180910390fd5b42600560008481526020019081526020016000206002015410151515611afa576040517f08c379a000000000000000000000000000000000000000000000000000000000815260040180806020018281038252602d8152602001807f4e657720766f74657273206d757374206265206164646564207072696f72207481526020017f6f2073746172742074696d652e0000000000000000000000000000000000000081525060400191505060405180910390fd5b600560008381526020019081526020016000206005018190806001815401808255809150509060018203906000526020600020016000909192909190916101000a81548173ffffffffffffffffffffffffffffffffffffffff021916908373ffffffffffffffffffffffffffffffffffffffff16021790555050611b7e600161254b565b611b8781611938565b5050565b60045481565b60008073ffffffffffffffffffffffffffffffffffffffff168373ffffffffffffffffffffffffffffffffffffffff1614151515611bce57600080fd5b611c5d82600160003373ffffffffffffffffffffffffffffffffffffffff1673ffffffffffffffffffffffffffffffffffffffff16815260200190815260200160002060008673ffffffffffffffffffffffffffffffffffffffff1673ffffffffffffffffffffffffffffffffffffffff1681526020019081526020016000205461233c90919063ffffffff16565b600160003373ffffffffffffffffffffffffffffffffffffffff1673ffffffffffffffffffffffffffffffffffffffff16815260200190815260200160002060008573ffffffffffffffffffffffffffffffffffffffff1673ffffffffffffffffffffffffffffffffffffffff168152602001908152602001600020819055508273ffffffffffffffffffffffffffffffffffffffff163373ffffffffffffffffffffffffffffffffffffffff167f8c5be1e5ebec7d5bd14f71427d1e84f3dd0314c0f7b2291e5b200ac8c7c3b925600160003373ffffffffffffffffffffffffffffffffffffffff1673ffffffffffffffffffffffffffffffffffffffff16815260200190815260200160002060008773ffffffffffffffffffffffffffffffffffffffff1673ffffffffffffffffffffffffffffffffffffffff168152602001908152602001600020546040518082815260200191505060405180910390a36001905092915050565b6000611dd533848461235e565b6001905092915050565b60006004600081548092919060010191905055506000611dfe866120b7565b90506000611e0b866120b7565b905060c0604051908101604052803373ffffffffffffffffffffffffffffffffffffffff1681526020018981526020018381526020018281526020016000604051908082528060200260200182016040528015611e775781602001602082028038833980820191505090505b5081526020016000604051908082528060200260200182016040528015611ead5781602001602082028038833980820191505090505b5081525060056000600454815260200190815260200160002060008201518160000160006101000a81548173ffffffffffffffffffffffffffffffffffffffff021916908373ffffffffffffffffffffffffffffffffffffffff1602179055506020820151816001019080519060200190611f299291906126ac565b5060408201518160020155606082015181600301556080820151816004019080519060200190611f5a92919061272c565b5060a0820151816005019080519060200190611f77929190612779565b5090505060076000815480929190600101919050555060086007549080600181540180825580915050906001820390600052602060002001600090919290919091505550606060405190810160405280600754815260200186815260200160008152506006600060075481526020019081526020016000206000820151816000015560208201518160010190805190602001906120159291906126ac565b5060408201518160020155905050600560006004548152602001908152602001600020600401600754908060018154018082558091505090600182039060005260206000200160009091929091909150555060008090505b84518110156120a657612099600454868381518110151561208a57fe5b90602001906020020151611947565b808060010191505061206d565b506004549250505095945050505050565b600080429050828101915050919050565b6005600083815260200190815260200160002060000160009054906101000a900473ffffffffffffffffffffffffffffffffffffffff1673ffffffffffffffffffffffffffffffffffffffff163373ffffffffffffffffffffffffffffffffffffffff161415156121c7576040517f08c379a000000000000000000000000000000000000000000000000000000000815260040180806020018281038252602f8152602001807f4f6e6c792061646d696e2063616e206164642063616e6469646174657320746f81526020017f207468697320656c656374696f6e2e000000000000000000000000000000000081525060400191505060405180910390fd5b60076000815480929190600101919050555060086007549080600181540180825580915050906001820390600052602060002001600090919290919091505550606060405190810160405280600754815260200182815260200160008152506006600060075481526020019081526020016000206000820151816000015560208201518160010190805190602001906122619291906126ac565b50604082015181600201559050506005600083815260200190815260200160002060040160075490806001815401808255809150509060018203906000526020600020016000909192909190915055505050565b6000600160008473ffffffffffffffffffffffffffffffffffffffff1673ffffffffffffffffffffffffffffffffffffffff16815260200190815260200160002060008373ffffffffffffffffffffffffffffffffffffffff1673ffffffffffffffffffffffffffffffffffffffff16815260200190815260200160002054905092915050565b600082821115151561234d57600080fd5b600082840390508091505092915050565b600073ffffffffffffffffffffffffffffffffffffffff168273ffffffffffffffffffffffffffffffffffffffff161415151561239a57600080fd5b6123eb816000808673ffffffffffffffffffffffffffffffffffffffff1673ffffffffffffffffffffffffffffffffffffffff1681526020019081526020016000205461233c90919063ffffffff16565b6000808573ffffffffffffffffffffffffffffffffffffffff1673ffffffffffffffffffffffffffffffffffffffff1681526020019081526020016000208190555061247e816000808573ffffffffffffffffffffffffffffffffffffffff1673ffffffffffffffffffffffffffffffffffffffff1681526020019081526020016000205461252a90919063ffffffff16565b6000808473ffffffffffffffffffffffffffffffffffffffff1673ffffffffffffffffffffffffffffffffffffffff168152602001908152602001600020819055508173ffffffffffffffffffffffffffffffffffffffff168373ffffffffffffffffffffffffffffffffffffffff167fddf252ad1be2c89b69c2b068fc378daa952ba7f163c4a11628f55a4df523b3ef836040518082815260200191505060405180910390a3505050565b600080828401905083811015151561254157600080fd5b8091505092915050565b6125553382612558565b50565b600073ffffffffffffffffffffffffffffffffffffffff168273ffffffffffffffffffffffffffffffffffffffff161415151561259457600080fd5b6125a98160025461252a90919063ffffffff16565b600281905550612600816000808573ffffffffffffffffffffffffffffffffffffffff1673ffffffffffffffffffffffffffffffffffffffff1681526020019081526020016000205461252a90919063ffffffff16565b6000808473ffffffffffffffffffffffffffffffffffffffff1673ffffffffffffffffffffffffffffffffffffffff168152602001908152602001600020819055508173ffffffffffffffffffffffffffffffffffffffff16600073ffffffffffffffffffffffffffffffffffffffff167fddf252ad1be2c89b69c2b068fc378daa952ba7f163c4a11628f55a4df523b3ef836040518082815260200191505060405180910390a35050565b828054600181600116156101000203166002900490600052602060002090601f016020900481019282601f106126ed57805160ff191683800117855561271b565b8280016001018555821561271b579182015b8281111561271a5782518255916020019190600101906126ff565b5b5090506127289190612803565b5090565b828054828255906000526020600020908101928215612768579160200282015b8281111561276757825182559160200191906001019061274c565b5b5090506127759190612803565b5090565b8280548282559060005260206000209081019282156127f2579160200282015b828111156127f15782518260006101000a81548173ffffffffffffffffffffffffffffffffffffffff021916908373ffffffffffffffffffffffffffffffffffffffff16021790555091602001919060010190612799565b5b5090506127ff9190612828565b5090565b61282591905b80821115612821576000816000905550600101612809565b5090565b90565b61286891905b8082111561286457600081816101000a81549073ffffffffffffffffffffffffffffffffffffffff02191690555060010161282e565b5090565b9056fea165627a7a723058200a306e7d86972675d5aa6ed4913a7605151e1732ecc83f0aed816e433820e0ff0029",
  "source": "pragma solidity ^0.5.0;\n\nimport \"../node_modules/openzeppelin-solidity/contracts/token/ERC20/ERC20.sol\";\n\ncontract ElectionManager is ERC20 {\n\n    string public smokeTest = \"its working nicely\";\n\n    struct Election {\n        address creator;\n        string electionName;\n        uint startTime;\n        uint endTime;\n        uint[] candidateData;\n        address[] whiteList;\n    }\n\n    struct Candidate  {\n        uint id;\n        string name;\n        uint voteCount;\n    }\n\n    uint public electionCount;\n    mapping(uint => Election) public elections;\n    mapping(uint => Candidate) candidateStorage;\n    uint candidatesCount;\n    uint[] candidateIds;\n\n    function startElection(string memory _electionName, uint _startTime, uint _endTime, string memory seedCandidate, address[] memory _whiteList) public returns (uint) {\n        electionCount++;\n        uint start = setTimer(_startTime);\n        uint end = setTimer(_endTime);\n        elections[electionCount] = Election(msg.sender, _electionName, start, end, new uint[](0), new address[](0));\n        candidatesCount++;\n        candidateIds.push(candidatesCount);\n        candidateStorage[candidatesCount] = Candidate(\n            candidatesCount,\n            seedCandidate,\n            0\n            );\n        elections[electionCount].candidateData.push(candidatesCount);\n\n        for (uint j = 0; j < _whiteList.length ; j++){\n            registerVoter(electionCount, _whiteList[j]);\n        }\n        return electionCount;\n    }\n\n    function getElectionCandidates(uint i) public view returns (uint[] memory){\n        return elections[i].candidateData;\n    }\n\n    function getCandidate(uint _id) public view returns (uint, string memory, uint) {\n        return (candidateStorage[_id].id, candidateStorage[_id].name, candidateStorage[_id].voteCount);\n    }\n\n    function addNewCandidate(uint electionId, string memory newCandidateName) public   {\n        require(msg.sender == elections[electionId].creator, \"Only admin can add candidates to this election.\");\n        candidatesCount++;\n        candidateIds.push(candidatesCount);\n        candidateStorage[candidatesCount] = Candidate(\n            candidatesCount,\n            newCandidateName,\n            0\n            );\n        elections[electionId].candidateData.push(candidatesCount);\n    }\n\n    function voteForCandidate(uint _id, uint _electionId) public returns (uint, string memory, uint) {\n        require(elections[_electionId].endTime > block.timestamp, \"The election has already ended.\");\n        require(elections[_electionId].startTime < block.timestamp, \"The election has not started yet.\");\n        address[] memory array = getRegistry(_electionId);\n        for (uint i = 0; i < array.length ; i++) {\n            if(array[i] == msg.sender) {\n                if(transfer(elections[_electionId].creator, 1)) {\n                    candidateStorage[_id].voteCount++;\n                    return (candidateStorage[_id].id, candidateStorage[_id].name, candidateStorage[_id].voteCount);\n                }\n            }\n        }\n    }\n\n    function getRegistry(uint electionId) public view returns (address[] memory){\n        return elections[electionId].whiteList;\n    }\n    \n    function registerVoter(uint electionId, address voter) public {\n        require(msg.sender == elections[electionId].creator, \"Only admin can add voters to this election's whitelist.\");\n        require(elections[electionId].startTime >= block.timestamp, \"New voters must be added prior to start time.\");\n        elections[electionId].whiteList.push(voter);\n        mint(1);\n        distributeToken(voter);\n    }\n\n    function setTimer(uint _voteLength) public view returns (uint) {\n        uint StartTime = block.timestamp;\n        return StartTime + _voteLength;\n    }\n    \n    function mint(uint _tokens) private {\n        _mint(msg.sender, _tokens);\n    }\n\n    function distributeToken(address _voter) public {\n        transfer(_voter, 1);\n    }\n}",
  "sourcePath": "/Users/xav/Desktop/NorthCoders/project/XavUrsa/ursa/contracts/ElectionManager.sol",
  "compiler": {
    "name": "solc",
    "version": "0.5.0+commit.1d4f565a.Emscripten.clang"
  },
  "schemaVersion": "3.0.0",
  "updatedAt": "2019-01-26T19:45:36.351Z",
  "devdoc": {
    "methods": {
      "allowance(address,address)": {
        "details": "Function to check the amount of tokens that an owner allowed to a spender.",
        "params": {
          "owner": "address The address which owns the funds.",
          "spender": "address The address which will spend the funds."
        },
        "return": "A uint256 specifying the amount of tokens still available for the spender."
      },
      "approve(address,uint256)": {
        "details": "Approve the passed address to spend the specified amount of tokens on behalf of msg.sender. Beware that changing an allowance with this method brings the risk that someone may use both the old and the new allowance by unfortunate transaction ordering. One possible solution to mitigate this race condition is to first reduce the spender's allowance to 0 and set the desired value afterwards: https://github.com/ethereum/EIPs/issues/20#issuecomment-263524729",
        "params": {
          "spender": "The address which will spend the funds.",
          "value": "The amount of tokens to be spent."
        }
      },
      "balanceOf(address)": {
        "details": "Gets the balance of the specified address.",
        "params": {
          "owner": "The address to query the balance of."
        },
        "return": "An uint256 representing the amount owned by the passed address."
      },
      "decreaseAllowance(address,uint256)": {
        "details": "Decrease the amount of tokens that an owner allowed to a spender. approve should be called when allowed_[_spender] == 0. To decrement allowed value is better to use this function to avoid 2 calls (and wait until the first transaction is mined) From MonolithDAO Token.sol Emits an Approval event.",
        "params": {
          "spender": "The address which will spend the funds.",
          "subtractedValue": "The amount of tokens to decrease the allowance by."
        }
      },
      "increaseAllowance(address,uint256)": {
        "details": "Increase the amount of tokens that an owner allowed to a spender. approve should be called when allowed_[_spender] == 0. To increment allowed value is better to use this function to avoid 2 calls (and wait until the first transaction is mined) From MonolithDAO Token.sol Emits an Approval event.",
        "params": {
          "addedValue": "The amount of tokens to increase the allowance by.",
          "spender": "The address which will spend the funds."
        }
      },
      "totalSupply()": {
        "details": "Total number of tokens in existence"
      },
      "transfer(address,uint256)": {
        "details": "Transfer token for a specified address",
        "params": {
          "to": "The address to transfer to.",
          "value": "The amount to be transferred."
        }
      },
      "transferFrom(address,address,uint256)": {
        "details": "Transfer tokens from one address to another. Note that while this function emits an Approval event, this is not required as per the specification, and other compliant implementations may not emit the event.",
        "params": {
          "from": "address The address which you want to send tokens from",
          "to": "address The address which you want to transfer to",
          "value": "uint256 the amount of tokens to be transferred"
        }
      }
    }
  },
  "userdoc": {
    "methods": {}
  }
}