{
  "contractName": "ElectionManager",
  "abi": [
    {
      "constant": false,
      "inputs": [
        {
          "name": "spender",
          "type": "address"
        },
        {
          "name": "value",
          "type": "uint256"
        }
      ],
      "name": "approve",
      "outputs": [
        {
          "name": "",
          "type": "bool"
        }
      ],
      "payable": false,
      "stateMutability": "nonpayable",
      "type": "function",
      "signature": "0x095ea7b3"
    },
    {
      "constant": true,
      "inputs": [],
      "name": "totalSupply",
      "outputs": [
        {
          "name": "",
          "type": "uint256"
        }
      ],
      "payable": false,
      "stateMutability": "view",
      "type": "function",
      "signature": "0x18160ddd"
    },
    {
      "constant": false,
      "inputs": [
        {
          "name": "from",
          "type": "address"
        },
        {
          "name": "to",
          "type": "address"
        },
        {
          "name": "value",
          "type": "uint256"
        }
      ],
      "name": "transferFrom",
      "outputs": [
        {
          "name": "",
          "type": "bool"
        }
      ],
      "payable": false,
      "stateMutability": "nonpayable",
      "type": "function",
      "signature": "0x23b872dd"
    },
    {
      "constant": false,
      "inputs": [
        {
          "name": "spender",
          "type": "address"
        },
        {
          "name": "addedValue",
          "type": "uint256"
        }
      ],
      "name": "increaseAllowance",
      "outputs": [
        {
          "name": "",
          "type": "bool"
        }
      ],
      "payable": false,
      "stateMutability": "nonpayable",
      "type": "function",
      "signature": "0x39509351"
    },
    {
      "constant": true,
      "inputs": [],
      "name": "smokeTest",
      "outputs": [
        {
          "name": "",
          "type": "string"
        }
      ],
      "payable": false,
      "stateMutability": "view",
      "type": "function",
      "signature": "0x3a81e5ff"
    },
    {
      "constant": true,
      "inputs": [
        {
          "name": "",
          "type": "uint256"
        }
      ],
      "name": "elections",
      "outputs": [
        {
          "name": "creator",
          "type": "address"
        },
        {
          "name": "electionName",
          "type": "string"
        },
        {
          "name": "startTime",
          "type": "uint256"
        },
        {
          "name": "endTime",
          "type": "uint256"
        }
      ],
      "payable": false,
      "stateMutability": "view",
      "type": "function",
      "signature": "0x5e6fef01"
    },
    {
      "constant": true,
      "inputs": [
        {
          "name": "owner",
          "type": "address"
        }
      ],
      "name": "balanceOf",
      "outputs": [
        {
          "name": "",
          "type": "uint256"
        }
      ],
      "payable": false,
      "stateMutability": "view",
      "type": "function",
      "signature": "0x70a08231"
    },
    {
      "constant": true,
      "inputs": [],
      "name": "electionCount",
      "outputs": [
        {
          "name": "",
          "type": "uint256"
        }
      ],
      "payable": false,
      "stateMutability": "view",
      "type": "function",
      "signature": "0x997d2830"
    },
    {
      "constant": false,
      "inputs": [
        {
          "name": "spender",
          "type": "address"
        },
        {
          "name": "subtractedValue",
          "type": "uint256"
        }
      ],
      "name": "decreaseAllowance",
      "outputs": [
        {
          "name": "",
          "type": "bool"
        }
      ],
      "payable": false,
      "stateMutability": "nonpayable",
      "type": "function",
      "signature": "0xa457c2d7"
    },
    {
      "constant": false,
      "inputs": [
        {
          "name": "to",
          "type": "address"
        },
        {
          "name": "value",
          "type": "uint256"
        }
      ],
      "name": "transfer",
      "outputs": [
        {
          "name": "",
          "type": "bool"
        }
      ],
      "payable": false,
      "stateMutability": "nonpayable",
      "type": "function",
      "signature": "0xa9059cbb"
    },
    {
      "constant": true,
      "inputs": [
        {
          "name": "owner",
          "type": "address"
        },
        {
          "name": "spender",
          "type": "address"
        }
      ],
      "name": "allowance",
      "outputs": [
        {
          "name": "",
          "type": "uint256"
        }
      ],
      "payable": false,
      "stateMutability": "view",
      "type": "function",
      "signature": "0xdd62ed3e"
    },
    {
      "anonymous": false,
      "inputs": [
        {
          "indexed": true,
          "name": "from",
          "type": "address"
        },
        {
          "indexed": true,
          "name": "to",
          "type": "address"
        },
        {
          "indexed": false,
          "name": "value",
          "type": "uint256"
        }
      ],
      "name": "Transfer",
      "type": "event",
      "signature": "0xddf252ad1be2c89b69c2b068fc378daa952ba7f163c4a11628f55a4df523b3ef"
    },
    {
      "anonymous": false,
      "inputs": [
        {
          "indexed": true,
          "name": "owner",
          "type": "address"
        },
        {
          "indexed": true,
          "name": "spender",
          "type": "address"
        },
        {
          "indexed": false,
          "name": "value",
          "type": "uint256"
        }
      ],
      "name": "Approval",
      "type": "event",
      "signature": "0x8c5be1e5ebec7d5bd14f71427d1e84f3dd0314c0f7b2291e5b200ac8c7c3b925"
    },
    {
      "constant": false,
      "inputs": [
        {
          "name": "_electionName",
          "type": "string"
        },
        {
          "name": "_startTime",
          "type": "uint256"
        },
        {
          "name": "_endTime",
          "type": "uint256"
        },
        {
          "name": "seedCandidate",
          "type": "string"
        },
        {
          "name": "_whiteList",
          "type": "address[]"
        }
      ],
      "name": "startElection",
      "outputs": [
        {
          "name": "",
          "type": "uint256"
        }
      ],
      "payable": false,
      "stateMutability": "nonpayable",
      "type": "function",
      "signature": "0xa9c6af97"
    },
    {
      "constant": true,
      "inputs": [
        {
          "name": "i",
          "type": "uint256"
        }
      ],
      "name": "getElectionCandidates",
      "outputs": [
        {
          "name": "",
          "type": "uint256[]"
        }
      ],
      "payable": false,
      "stateMutability": "view",
      "type": "function",
      "signature": "0x5e12845e"
    },
    {
      "constant": true,
      "inputs": [
        {
          "name": "_id",
          "type": "uint256"
        }
      ],
      "name": "getCandidate",
      "outputs": [
        {
          "name": "",
          "type": "uint256"
        },
        {
          "name": "",
          "type": "string"
        },
        {
          "name": "",
          "type": "uint256"
        }
      ],
      "payable": false,
      "stateMutability": "view",
      "type": "function",
      "signature": "0x35b8e820"
    },
    {
      "constant": false,
      "inputs": [
        {
          "name": "electionId",
          "type": "uint256"
        },
        {
          "name": "newCandidateName",
          "type": "string"
        }
      ],
      "name": "addNewCandidate",
      "outputs": [],
      "payable": false,
      "stateMutability": "nonpayable",
      "type": "function",
      "signature": "0xd05e4d7f"
    },
    {
      "constant": false,
      "inputs": [
        {
          "name": "_id",
          "type": "uint256"
        },
        {
          "name": "_electionId",
          "type": "uint256"
        }
      ],
      "name": "voteForCandidate",
      "outputs": [
        {
          "name": "",
          "type": "uint256"
        },
        {
          "name": "",
          "type": "string"
        },
        {
          "name": "",
          "type": "uint256"
        }
      ],
      "payable": false,
      "stateMutability": "nonpayable",
      "type": "function",
      "signature": "0x626b2c98"
    },
    {
      "constant": true,
      "inputs": [
        {
          "name": "electionId",
          "type": "uint256"
        }
      ],
      "name": "getRegistry",
      "outputs": [
        {
          "name": "",
          "type": "address[]"
        }
      ],
      "payable": false,
      "stateMutability": "view",
      "type": "function",
      "signature": "0x193c045e"
    },
    {
      "constant": false,
      "inputs": [
        {
          "name": "electionId",
          "type": "uint256"
        },
        {
          "name": "voter",
          "type": "address"
        }
      ],
      "name": "registerVoter",
      "outputs": [],
      "payable": false,
      "stateMutability": "nonpayable",
      "type": "function",
      "signature": "0x94c790bb"
    },
    {
      "constant": false,
      "inputs": [
        {
          "name": "_voter",
          "type": "address"
        }
      ],
      "name": "distributeToken",
      "outputs": [],
      "payable": false,
      "stateMutability": "nonpayable",
      "type": "function",
      "signature": "0x86d74037"
    }
  ],
  "bytecode": "0x60806040526040805190810160405280601281526020017f69747320776f726b696e67206e6963656c790000000000000000000000000000815250600390805190602001906200005192919062000066565b503480156200005f57600080fd5b5062000115565b828054600181600116156101000203166002900490600052602060002090601f016020900481019282601f10620000a957805160ff1916838001178555620000da565b82800160010185558215620000da579182015b82811115620000d9578251825591602001919060010190620000bc565b5b509050620000e99190620000ed565b5090565b6200011291905b808211156200010e576000816000905550600101620000f4565b5090565b90565b61281080620001256000396000f3fe608060405260043610610107576000357c0100000000000000000000000000000000000000000000000000000000900463ffffffff168063095ea7b31461010c57806318160ddd1461017f578063193c045e146101aa57806323b872dd1461023a57806335b8e820146102cd578063395093511461038f5780633a81e5ff146104025780635e12845e146104925780635e6fef0114610522578063626b2c981461061757806370a08231146106e357806386d740371461074857806394c790bb14610799578063997d2830146107f4578063a457c2d71461081f578063a9059cbb14610892578063a9c6af9714610905578063d05e4d7f14610b20578063dd62ed3e14610bf2575b600080fd5b34801561011857600080fd5b506101656004803603604081101561012f57600080fd5b81019080803573ffffffffffffffffffffffffffffffffffffffff16906020019092919080359060200190929190505050610c77565b604051808215151515815260200191505060405180910390f35b34801561018b57600080fd5b50610194610da4565b6040518082815260200191505060405180910390f35b3480156101b657600080fd5b506101e3600480360360208110156101cd57600080fd5b8101908080359060200190929190505050610dae565b6040518080602001828103825283818151815260200191508051906020019060200280838360005b8381101561022657808201518184015260208101905061020b565b505050509050019250505060405180910390f35b34801561024657600080fd5b506102b36004803603606081101561025d57600080fd5b81019080803573ffffffffffffffffffffffffffffffffffffffff169060200190929190803573ffffffffffffffffffffffffffffffffffffffff16906020019092919080359060200190929190505050610e52565b604051808215151515815260200191505060405180910390f35b3480156102d957600080fd5b50610306600480360360208110156102f057600080fd5b810190808035906020019092919050505061105a565b6040518084815260200180602001838152602001828103825284818151815260200191508051906020019080838360005b83811015610352578082015181840152602081019050610337565b50505050905090810190601f16801561037f5780820380516001836020036101000a031916815260200191505b5094505050505060405180910390f35b34801561039b57600080fd5b506103e8600480360360408110156103b257600080fd5b81019080803573ffffffffffffffffffffffffffffffffffffffff1690602001909291908035906020019092919050505061114d565b604051808215151515815260200191505060405180910390f35b34801561040e57600080fd5b50610417611384565b6040518080602001828103825283818151815260200191508051906020019080838360005b8381101561045757808201518184015260208101905061043c565b50505050905090810190601f1680156104845780820380516001836020036101000a031916815260200191505b509250505060405180910390f35b34801561049e57600080fd5b506104cb600480360360208110156104b557600080fd5b8101908080359060200190929190505050611422565b6040518080602001828103825283818151815260200191508051906020019060200280838360005b8381101561050e5780820151818401526020810190506104f3565b505050509050019250505060405180910390f35b34801561052e57600080fd5b5061055b6004803603602081101561054557600080fd5b8101908080359060200190929190505050611490565b604051808573ffffffffffffffffffffffffffffffffffffffff1673ffffffffffffffffffffffffffffffffffffffff16815260200180602001848152602001838152602001828103825285818151815260200191508051906020019080838360005b838110156105d95780820151818401526020810190506105be565b50505050905090810190601f1680156106065780820380516001836020036101000a031916815260200191505b509550505050505060405180910390f35b34801561062357600080fd5b5061065a6004803603604081101561063a57600080fd5b810190808035906020019092919080359060200190929190505050611578565b6040518084815260200180602001838152602001828103825284818151815260200191508051906020019080838360005b838110156106a657808201518184015260208101905061068b565b50505050905090810190601f1680156106d35780820380516001836020036101000a031916815260200191505b5094505050505060405180910390f35b3480156106ef57600080fd5b506107326004803603602081101561070657600080fd5b81019080803573ffffffffffffffffffffffffffffffffffffffff169060200190929190505050611896565b6040518082815260200191505060405180910390f35b34801561075457600080fd5b506107976004803603602081101561076b57600080fd5b81019080803573ffffffffffffffffffffffffffffffffffffffff1690602001909291905050506118de565b005b3480156107a557600080fd5b506107f2600480360360408110156107bc57600080fd5b8101908080359060200190929190803573ffffffffffffffffffffffffffffffffffffffff1690602001909291905050506118ed565b005b34801561080057600080fd5b50610809611b31565b6040518082815260200191505060405180910390f35b34801561082b57600080fd5b506108786004803603604081101561084257600080fd5b81019080803573ffffffffffffffffffffffffffffffffffffffff16906020019092919080359060200190929190505050611b37565b604051808215151515815260200191505060405180910390f35b34801561089e57600080fd5b506108eb600480360360408110156108b557600080fd5b81019080803573ffffffffffffffffffffffffffffffffffffffff16906020019092919080359060200190929190505050611d6e565b604051808215151515815260200191505060405180910390f35b34801561091157600080fd5b50610b0a600480360360a081101561092857600080fd5b810190808035906020019064010000000081111561094557600080fd5b82018360208201111561095757600080fd5b8035906020019184600183028401116401000000008311171561097957600080fd5b91908080601f016020809104026020016040519081016040528093929190818152602001838380828437600081840152601f19601f8201169050808301925050505050505091929192908035906020019092919080359060200190929190803590602001906401000000008111156109f057600080fd5b820183602082011115610a0257600080fd5b80359060200191846001830284011164010000000083111715610a2457600080fd5b91908080601f016020809104026020016040519081016040528093929190818152602001838380828437600081840152601f19601f82011690508083019250505050505050919291929080359060200190640100000000811115610a8757600080fd5b820183602082011115610a9957600080fd5b80359060200191846020830284011164010000000083111715610abb57600080fd5b919080806020026020016040519081016040528093929190818152602001838360200280828437600081840152601f19601f820116905080830192505050505050509192919290505050611d85565b6040518082815260200191505060405180910390f35b348015610b2c57600080fd5b50610bf060048036036040811015610b4357600080fd5b810190808035906020019092919080359060200190640100000000811115610b6a57600080fd5b820183602082011115610b7c57600080fd5b80359060200191846001830284011164010000000083111715610b9e57600080fd5b91908080601f016020809104026020016040519081016040528093929190818152602001838380828437600081840152601f19601f820116905080830192505050505050509192919290505050612041565b005b348015610bfe57600080fd5b50610c6160048036036040811015610c1557600080fd5b81019080803573ffffffffffffffffffffffffffffffffffffffff169060200190929190803573ffffffffffffffffffffffffffffffffffffffff16906020019092919050505061222e565b6040518082815260200191505060405180910390f35b60008073ffffffffffffffffffffffffffffffffffffffff168373ffffffffffffffffffffffffffffffffffffffff1614151515610cb457600080fd5b81600160003373ffffffffffffffffffffffffffffffffffffffff1673ffffffffffffffffffffffffffffffffffffffff16815260200190815260200160002060008573ffffffffffffffffffffffffffffffffffffffff1673ffffffffffffffffffffffffffffffffffffffff168152602001908152602001600020819055508273ffffffffffffffffffffffffffffffffffffffff163373ffffffffffffffffffffffffffffffffffffffff167f8c5be1e5ebec7d5bd14f71427d1e84f3dd0314c0f7b2291e5b200ac8c7c3b925846040518082815260200191505060405180910390a36001905092915050565b6000600254905090565b606060056000838152602001908152602001600020600501805480602002602001604051908101604052809291908181526020018280548015610e4657602002820191906000526020600020905b8160009054906101000a900473ffffffffffffffffffffffffffffffffffffffff1673ffffffffffffffffffffffffffffffffffffffff1681526020019060010190808311610dfc575b50505050509050919050565b6000610ee382600160008773ffffffffffffffffffffffffffffffffffffffff1673ffffffffffffffffffffffffffffffffffffffff16815260200190815260200160002060003373ffffffffffffffffffffffffffffffffffffffff1673ffffffffffffffffffffffffffffffffffffffff168152602001908152602001600020546122b590919063ffffffff16565b600160008673ffffffffffffffffffffffffffffffffffffffff1673ffffffffffffffffffffffffffffffffffffffff16815260200190815260200160002060003373ffffffffffffffffffffffffffffffffffffffff1673ffffffffffffffffffffffffffffffffffffffff16815260200190815260200160002081905550610f6e8484846122d7565b3373ffffffffffffffffffffffffffffffffffffffff168473ffffffffffffffffffffffffffffffffffffffff167f8c5be1e5ebec7d5bd14f71427d1e84f3dd0314c0f7b2291e5b200ac8c7c3b925600160008873ffffffffffffffffffffffffffffffffffffffff1673ffffffffffffffffffffffffffffffffffffffff16815260200190815260200160002060003373ffffffffffffffffffffffffffffffffffffffff1673ffffffffffffffffffffffffffffffffffffffff168152602001908152602001600020546040518082815260200191505060405180910390a3600190509392505050565b6000606060006006600085815260200190815260200160002060000154600660008681526020019081526020016000206001016006600087815260200190815260200160002060020154818054600181600116156101000203166002900480601f0160208091040260200160405190810160405280929190818152602001828054600181600116156101000203166002900480156111395780601f1061110e57610100808354040283529160200191611139565b820191906000526020600020905b81548152906001019060200180831161111c57829003601f168201915b505050505091509250925092509193909250565b60008073ffffffffffffffffffffffffffffffffffffffff168373ffffffffffffffffffffffffffffffffffffffff161415151561118a57600080fd5b61121982600160003373ffffffffffffffffffffffffffffffffffffffff1673ffffffffffffffffffffffffffffffffffffffff16815260200190815260200160002060008673ffffffffffffffffffffffffffffffffffffffff1673ffffffffffffffffffffffffffffffffffffffff168152602001908152602001600020546124a390919063ffffffff16565b600160003373ffffffffffffffffffffffffffffffffffffffff1673ffffffffffffffffffffffffffffffffffffffff16815260200190815260200160002060008573ffffffffffffffffffffffffffffffffffffffff1673ffffffffffffffffffffffffffffffffffffffff168152602001908152602001600020819055508273ffffffffffffffffffffffffffffffffffffffff163373ffffffffffffffffffffffffffffffffffffffff167f8c5be1e5ebec7d5bd14f71427d1e84f3dd0314c0f7b2291e5b200ac8c7c3b925600160003373ffffffffffffffffffffffffffffffffffffffff1673ffffffffffffffffffffffffffffffffffffffff16815260200190815260200160002060008773ffffffffffffffffffffffffffffffffffffffff1673ffffffffffffffffffffffffffffffffffffffff168152602001908152602001600020546040518082815260200191505060405180910390a36001905092915050565b60038054600181600116156101000203166002900480601f01602080910402602001604051908101604052809291908181526020018280546001816001161561010002031660029004801561141a5780601f106113ef5761010080835404028352916020019161141a565b820191906000526020600020905b8154815290600101906020018083116113fd57829003601f168201915b505050505081565b60606005600083815260200190815260200160002060040180548060200260200160405190810160405280929190818152602001828054801561148457602002820191906000526020600020905b815481526020019060010190808311611470575b50505050509050919050565b60056020528060005260406000206000915090508060000160009054906101000a900473ffffffffffffffffffffffffffffffffffffffff1690806001018054600181600116156101000203166002900480601f0160208091040260200160405190810160405280929190818152602001828054600181600116156101000203166002900480156115625780601f1061153757610100808354040283529160200191611562565b820191906000526020600020905b81548152906001019060200180831161154557829003601f168201915b5050505050908060020154908060030154905084565b60006060600042600560008681526020019081526020016000206003015411151561160b576040517f08c379a000000000000000000000000000000000000000000000000000000000815260040180806020018281038252601f8152602001807f54686520656c656374696f6e2068617320616c726561647920656e6465642e0081525060200191505060405180910390fd5b4260056000868152602001908152602001600020600201541015156116be576040517f08c379a00000000000000000000000000000000000000000000000000000000081526004018080602001828103825260218152602001807f54686520656c656374696f6e20686173206e6f7420737461727465642079657481526020017f2e0000000000000000000000000000000000000000000000000000000000000081525060400191505060405180910390fd5b60606116c985610dae565b905060008090505b815181101561188c573373ffffffffffffffffffffffffffffffffffffffff1682828151811015156116ff57fe5b9060200190602002015173ffffffffffffffffffffffffffffffffffffffff16141561187f576117666005600088815260200190815260200160002060000160009054906101000a900473ffffffffffffffffffffffffffffffffffffffff166001611d6e565b1561187e576006600088815260200190815260200160002060020160008154809291906001019190505550600660008881526020019081526020016000206000015460066000898152602001908152602001600020600101600660008a815260200190815260200160002060020154818054600181600116156101000203166002900480601f01602080910402602001604051908101604052809291908181526020018280546001816001161561010002031660029004801561186a5780601f1061183f5761010080835404028352916020019161186a565b820191906000526020600020905b81548152906001019060200180831161184d57829003601f168201915b50505050509150945094509450505061188f565b5b80806001019150506116d1565b50505b9250925092565b60008060008373ffffffffffffffffffffffffffffffffffffffff1673ffffffffffffffffffffffffffffffffffffffff168152602001908152602001600020549050919050565b6118e9816001611d6e565b5050565b6005600083815260200190815260200160002060000160009054906101000a900473ffffffffffffffffffffffffffffffffffffffff1673ffffffffffffffffffffffffffffffffffffffff163373ffffffffffffffffffffffffffffffffffffffff161415156119ec576040517f08c379a00000000000000000000000000000000000000000000000000000000081526004018080602001828103825260378152602001807f4f6e6c792061646d696e2063616e2061646420766f7465727320746f2074686981526020017f7320656c656374696f6e27732077686974656c6973742e00000000000000000081525060400191505060405180910390fd5b42600560008481526020019081526020016000206002015410151515611aa0576040517f08c379a000000000000000000000000000000000000000000000000000000000815260040180806020018281038252602d8152602001807f4e657720766f74657273206d757374206265206164646564207072696f72207481526020017f6f2073746172742074696d652e0000000000000000000000000000000000000081525060400191505060405180910390fd5b600560008381526020019081526020016000206005018190806001815401808255809150509060018203906000526020600020016000909192909190916101000a81548173ffffffffffffffffffffffffffffffffffffffff021916908373ffffffffffffffffffffffffffffffffffffffff16021790555050611b2460016124c4565b611b2d816118de565b5050565b60045481565b60008073ffffffffffffffffffffffffffffffffffffffff168373ffffffffffffffffffffffffffffffffffffffff1614151515611b7457600080fd5b611c0382600160003373ffffffffffffffffffffffffffffffffffffffff1673ffffffffffffffffffffffffffffffffffffffff16815260200190815260200160002060008673ffffffffffffffffffffffffffffffffffffffff1673ffffffffffffffffffffffffffffffffffffffff168152602001908152602001600020546122b590919063ffffffff16565b600160003373ffffffffffffffffffffffffffffffffffffffff1673ffffffffffffffffffffffffffffffffffffffff16815260200190815260200160002060008573ffffffffffffffffffffffffffffffffffffffff1673ffffffffffffffffffffffffffffffffffffffff168152602001908152602001600020819055508273ffffffffffffffffffffffffffffffffffffffff163373ffffffffffffffffffffffffffffffffffffffff167f8c5be1e5ebec7d5bd14f71427d1e84f3dd0314c0f7b2291e5b200ac8c7c3b925600160003373ffffffffffffffffffffffffffffffffffffffff1673ffffffffffffffffffffffffffffffffffffffff16815260200190815260200160002060008773ffffffffffffffffffffffffffffffffffffffff1673ffffffffffffffffffffffffffffffffffffffff168152602001908152602001600020546040518082815260200191505060405180910390a36001905092915050565b6000611d7b3384846122d7565b6001905092915050565b600060046000815480929190600101919050555060c0604051908101604052803373ffffffffffffffffffffffffffffffffffffffff1681526020018781526020018681526020018581526020016000604051908082528060200260200182016040528015611e035781602001602082028038833980820191505090505b5081526020016000604051908082528060200260200182016040528015611e395781602001602082028038833980820191505090505b5081525060056000600454815260200190815260200160002060008201518160000160006101000a81548173ffffffffffffffffffffffffffffffffffffffff021916908373ffffffffffffffffffffffffffffffffffffffff1602179055506020820151816001019080519060200190611eb5929190612625565b5060408201518160020155606082015181600301556080820151816004019080519060200190611ee69291906126a5565b5060a0820151816005019080519060200190611f039291906126f2565b509050506007600081548092919060010191905055506008600754908060018154018082558091505090600182039060005260206000200160009091929091909150555060606040519081016040528060075481526020018481526020016000815250600660006007548152602001908152602001600020600082015181600001556020820151816001019080519060200190611fa1929190612625565b5060408201518160020155905050600560006004548152602001908152602001600020600401600754908060018154018082558091505090600182039060005260206000200160009091929091909150555060008090505b825181101561203257612025600454848381518110151561201657fe5b906020019060200201516118ed565b8080600101915050611ff9565b50600454905095945050505050565b6005600083815260200190815260200160002060000160009054906101000a900473ffffffffffffffffffffffffffffffffffffffff1673ffffffffffffffffffffffffffffffffffffffff163373ffffffffffffffffffffffffffffffffffffffff16141515612140576040517f08c379a000000000000000000000000000000000000000000000000000000000815260040180806020018281038252602f8152602001807f4f6e6c792061646d696e2063616e206164642063616e6469646174657320746f81526020017f207468697320656c656374696f6e2e000000000000000000000000000000000081525060400191505060405180910390fd5b60076000815480929190600101919050555060086007549080600181540180825580915050906001820390600052602060002001600090919290919091505550606060405190810160405280600754815260200182815260200160008152506006600060075481526020019081526020016000206000820151816000015560208201518160010190805190602001906121da929190612625565b50604082015181600201559050506005600083815260200190815260200160002060040160075490806001815401808255809150509060018203906000526020600020016000909192909190915055505050565b6000600160008473ffffffffffffffffffffffffffffffffffffffff1673ffffffffffffffffffffffffffffffffffffffff16815260200190815260200160002060008373ffffffffffffffffffffffffffffffffffffffff1673ffffffffffffffffffffffffffffffffffffffff16815260200190815260200160002054905092915050565b60008282111515156122c657600080fd5b600082840390508091505092915050565b600073ffffffffffffffffffffffffffffffffffffffff168273ffffffffffffffffffffffffffffffffffffffff161415151561231357600080fd5b612364816000808673ffffffffffffffffffffffffffffffffffffffff1673ffffffffffffffffffffffffffffffffffffffff168152602001908152602001600020546122b590919063ffffffff16565b6000808573ffffffffffffffffffffffffffffffffffffffff1673ffffffffffffffffffffffffffffffffffffffff168152602001908152602001600020819055506123f7816000808573ffffffffffffffffffffffffffffffffffffffff1673ffffffffffffffffffffffffffffffffffffffff168152602001908152602001600020546124a390919063ffffffff16565b6000808473ffffffffffffffffffffffffffffffffffffffff1673ffffffffffffffffffffffffffffffffffffffff168152602001908152602001600020819055508173ffffffffffffffffffffffffffffffffffffffff168373ffffffffffffffffffffffffffffffffffffffff167fddf252ad1be2c89b69c2b068fc378daa952ba7f163c4a11628f55a4df523b3ef836040518082815260200191505060405180910390a3505050565b60008082840190508381101515156124ba57600080fd5b8091505092915050565b6124ce33826124d1565b50565b600073ffffffffffffffffffffffffffffffffffffffff168273ffffffffffffffffffffffffffffffffffffffff161415151561250d57600080fd5b612522816002546124a390919063ffffffff16565b600281905550612579816000808573ffffffffffffffffffffffffffffffffffffffff1673ffffffffffffffffffffffffffffffffffffffff168152602001908152602001600020546124a390919063ffffffff16565b6000808473ffffffffffffffffffffffffffffffffffffffff1673ffffffffffffffffffffffffffffffffffffffff168152602001908152602001600020819055508173ffffffffffffffffffffffffffffffffffffffff16600073ffffffffffffffffffffffffffffffffffffffff167fddf252ad1be2c89b69c2b068fc378daa952ba7f163c4a11628f55a4df523b3ef836040518082815260200191505060405180910390a35050565b828054600181600116156101000203166002900490600052602060002090601f016020900481019282601f1061266657805160ff1916838001178555612694565b82800160010185558215612694579182015b82811115612693578251825591602001919060010190612678565b5b5090506126a1919061277c565b5090565b8280548282559060005260206000209081019282156126e1579160200282015b828111156126e05782518255916020019190600101906126c5565b5b5090506126ee919061277c565b5090565b82805482825590600052602060002090810192821561276b579160200282015b8281111561276a5782518260006101000a81548173ffffffffffffffffffffffffffffffffffffffff021916908373ffffffffffffffffffffffffffffffffffffffff16021790555091602001919060010190612712565b5b50905061277891906127a1565b5090565b61279e91905b8082111561279a576000816000905550600101612782565b5090565b90565b6127e191905b808211156127dd57600081816101000a81549073ffffffffffffffffffffffffffffffffffffffff0219169055506001016127a7565b5090565b9056fea165627a7a72305820f01251613dd99f854a04a8f30c6528f96ff1c5cb15dad2fda7e7f8b918b279dc0029",
  "source": "pragma solidity ^0.5.0;\n\nimport \"../node_modules/openzeppelin-solidity/contracts/token/ERC20/ERC20.sol\";\n\ncontract ElectionManager is ERC20 {\n\n    string public smokeTest = \"its working nicely\";\n\n    struct Election {\n        address creator;\n        string electionName;\n        uint startTime;\n        uint endTime;\n        uint[] candidateData;\n        address[] whiteList;\n    }\n\n    struct Candidate  {\n        uint id;\n        string name;\n        uint voteCount;\n    }\n\n    uint public electionCount;\n    mapping(uint => Election) public elections;\n    mapping(uint => Candidate) candidateStorage;\n    uint candidatesCount;\n    uint[] candidateIds;\n\n    function startElection(string memory _electionName, uint _startTime, uint _endTime, string memory seedCandidate, address[] memory _whiteList) public returns (uint) {\n        electionCount++;\n\n        elections[electionCount] = Election(msg.sender, _electionName, _startTime, _endTime, new uint[](0), new address[](0));\n        candidatesCount++;\n        candidateIds.push(candidatesCount);\n        candidateStorage[candidatesCount] = Candidate(\n            candidatesCount,\n            seedCandidate,\n            0\n            );\n        elections[electionCount].candidateData.push(candidatesCount);\n\n        for (uint j = 0; j < _whiteList.length ; j++){\n            registerVoter(electionCount, _whiteList[j]);\n        }\n        return electionCount;\n    }\n\n    function getElectionCandidates(uint i) public view returns (uint[] memory){\n        return elections[i].candidateData;\n    }\n\n    function getCandidate(uint _id) public view returns (uint, string memory, uint) {\n        return (candidateStorage[_id].id, candidateStorage[_id].name, candidateStorage[_id].voteCount);\n    }\n\n    function addNewCandidate(uint electionId, string memory newCandidateName) public   {\n        require(msg.sender == elections[electionId].creator, \"Only admin can add candidates to this election.\");\n        candidatesCount++;\n        candidateIds.push(candidatesCount);\n        candidateStorage[candidatesCount] = Candidate(\n            candidatesCount,\n            newCandidateName,\n            0\n            );\n        elections[electionId].candidateData.push(candidatesCount);\n    }\n\n    function voteForCandidate(uint _id, uint _electionId) public returns (uint, string memory, uint) {\n        require(elections[_electionId].endTime > block.timestamp, \"The election has already ended.\");\n        require(elections[_electionId].startTime < block.timestamp, \"The election has not started yet.\");\n        address[] memory array = getRegistry(_electionId);\n        for (uint i = 0; i < array.length ; i++) {\n            if(array[i] == msg.sender) {\n                if(transfer(elections[_electionId].creator, 1)) {\n                    candidateStorage[_id].voteCount++;\n                    return (candidateStorage[_id].id, candidateStorage[_id].name, candidateStorage[_id].voteCount);\n                }\n            }\n        }\n    }\n\n    function getRegistry(uint electionId) public view returns (address[] memory){\n        return elections[electionId].whiteList;\n    }\n    \n    function registerVoter(uint electionId, address voter) public {\n        require(msg.sender == elections[electionId].creator, \"Only admin can add voters to this election's whitelist.\");\n        require(elections[electionId].startTime >= block.timestamp, \"New voters must be added prior to start time.\");\n        elections[electionId].whiteList.push(voter);\n        mint(1);\n        distributeToken(voter);\n    }\n    \n    function mint(uint _tokens) private {\n        _mint(msg.sender, _tokens);\n    }\n\n    function distributeToken(address _voter) public {\n        transfer(_voter, 1);\n    }\n}",
  "sourcePath": "/Users/xav/Desktop/NorthCoders/project/XavUrsa/ursa/contracts/ElectionManager.sol",
  "compiler": {
    "name": "solc",
    "version": "0.5.0+commit.1d4f565a.Emscripten.clang"
  },
  "schemaVersion": "3.0.0",
  "updatedAt": "2019-01-27T01:01:04.818Z",
  "devdoc": {
    "methods": {
      "allowance(address,address)": {
        "details": "Function to check the amount of tokens that an owner allowed to a spender.",
        "params": {
          "owner": "address The address which owns the funds.",
          "spender": "address The address which will spend the funds."
        },
        "return": "A uint256 specifying the amount of tokens still available for the spender."
      },
      "approve(address,uint256)": {
        "details": "Approve the passed address to spend the specified amount of tokens on behalf of msg.sender. Beware that changing an allowance with this method brings the risk that someone may use both the old and the new allowance by unfortunate transaction ordering. One possible solution to mitigate this race condition is to first reduce the spender's allowance to 0 and set the desired value afterwards: https://github.com/ethereum/EIPs/issues/20#issuecomment-263524729",
        "params": {
          "spender": "The address which will spend the funds.",
          "value": "The amount of tokens to be spent."
        }
      },
      "balanceOf(address)": {
        "details": "Gets the balance of the specified address.",
        "params": {
          "owner": "The address to query the balance of."
        },
        "return": "An uint256 representing the amount owned by the passed address."
      },
      "decreaseAllowance(address,uint256)": {
        "details": "Decrease the amount of tokens that an owner allowed to a spender. approve should be called when allowed_[_spender] == 0. To decrement allowed value is better to use this function to avoid 2 calls (and wait until the first transaction is mined) From MonolithDAO Token.sol Emits an Approval event.",
        "params": {
          "spender": "The address which will spend the funds.",
          "subtractedValue": "The amount of tokens to decrease the allowance by."
        }
      },
      "increaseAllowance(address,uint256)": {
        "details": "Increase the amount of tokens that an owner allowed to a spender. approve should be called when allowed_[_spender] == 0. To increment allowed value is better to use this function to avoid 2 calls (and wait until the first transaction is mined) From MonolithDAO Token.sol Emits an Approval event.",
        "params": {
          "addedValue": "The amount of tokens to increase the allowance by.",
          "spender": "The address which will spend the funds."
        }
      },
      "totalSupply()": {
        "details": "Total number of tokens in existence"
      },
      "transfer(address,uint256)": {
        "details": "Transfer token for a specified address",
        "params": {
          "to": "The address to transfer to.",
          "value": "The amount to be transferred."
        }
      },
      "transferFrom(address,address,uint256)": {
        "details": "Transfer tokens from one address to another. Note that while this function emits an Approval event, this is not required as per the specification, and other compliant implementations may not emit the event.",
        "params": {
          "from": "address The address which you want to send tokens from",
          "to": "address The address which you want to transfer to",
          "value": "uint256 the amount of tokens to be transferred"
        }
      }
    }
  },
  "userdoc": {
    "methods": {}
  }
}